{
  "contractName": "DIDRegistry",
  "abi": [
    {
      "inputs": [
        {
          "internalType": "string",
          "name": "",
          "type": "string"
        }
      ],
      "name": "dids",
      "outputs": [
        {
          "internalType": "string",
          "name": "did",
          "type": "string"
        },
        {
          "internalType": "string",
          "name": "publicKey",
          "type": "string"
        }
      ],
      "stateMutability": "view",
      "type": "function",
      "constant": true
    },
    {
      "inputs": [
        {
          "internalType": "string",
          "name": "_did",
          "type": "string"
        },
        {
          "internalType": "string",
          "name": "_publicKey",
          "type": "string"
        }
      ],
      "name": "registerDID",
      "outputs": [],
      "stateMutability": "nonpayable",
      "type": "function"
    },
    {
      "inputs": [
        {
          "internalType": "string",
          "name": "_did",
          "type": "string"
        }
      ],
      "name": "resolveDID",
      "outputs": [
        {
          "internalType": "string",
          "name": "",
          "type": "string"
        },
        {
          "internalType": "string",
          "name": "",
          "type": "string"
        }
      ],
      "stateMutability": "view",
      "type": "function",
      "constant": true
    },
    {
      "inputs": [
        {
          "internalType": "string",
          "name": "_did",
          "type": "string"
        },
        {
          "internalType": "string",
          "name": "_newPublicKey",
          "type": "string"
        }
      ],
      "name": "updateDID",
      "outputs": [],
      "stateMutability": "nonpayable",
      "type": "function"
    }
  ],
  "bytecode": "0x608060405234801561001057600080fd5b50610a77806100206000396000f3fe608060405234801561001057600080fd5b506004361061004c5760003560e01c80637e5c39e9146100515780639d7f0bbf1461006d578063b42a02b51461009e578063f44ab516146100ba575b600080fd5b61006b6004803603810190610066919061058f565b6100eb565b005b61008760048036038101906100829190610607565b610151565b6040516100959291906106cf565b60405180910390f35b6100b860048036038101906100b3919061058f565b6102b8565b005b6100d460048036038101906100cf9190610607565b6102eb565b6040516100e29291906106cf565b60405180910390f35b6040518060400160405280838152602001828152506000836040516101109190610742565b90815260200160405180910390206000820151816000019081610133919061096f565b506020820151816001019081610149919061096f565b509050505050565b606080600080846040516101659190610742565b908152602001604051809103902060405180604001604052908160008201805461018e90610788565b80601f01602080910402602001604051908101604052809291908181526020018280546101ba90610788565b80156102075780601f106101dc57610100808354040283529160200191610207565b820191906000526020600020905b8154815290600101906020018083116101ea57829003601f168201915b5050505050815260200160018201805461022090610788565b80601f016020809104026020016040519081016040528092919081815260200182805461024c90610788565b80156102995780601f1061026e57610100808354040283529160200191610299565b820191906000526020600020905b81548152906001019060200180831161027c57829003601f168201915b5050505050815250509050806000015181602001519250925050915091565b806000836040516102c99190610742565b908152602001604051809103902060010190816102e6919061096f565b505050565b60008180516020810182018051848252602083016020850120818352809550505050505060009150905080600001805461032490610788565b80601f016020809104026020016040519081016040528092919081815260200182805461035090610788565b801561039d5780601f106103725761010080835404028352916020019161039d565b820191906000526020600020905b81548152906001019060200180831161038057829003601f168201915b5050505050908060010180546103b290610788565b80601f01602080910402602001604051908101604052809291908181526020018280546103de90610788565b801561042b5780601f106104005761010080835404028352916020019161042b565b820191906000526020600020905b81548152906001019060200180831161040e57829003601f168201915b5050505050905082565b6000604051905090565b600080fd5b600080fd5b600080fd5b600080fd5b6000601f19601f8301169050919050565b7f4e487b7100000000000000000000000000000000000000000000000000000000600052604160045260246000fd5b61049c82610453565b810181811067ffffffffffffffff821117156104bb576104ba610464565b5b80604052505050565b60006104ce610435565b90506104da8282610493565b919050565b600067ffffffffffffffff8211156104fa576104f9610464565b5b61050382610453565b9050602081019050919050565b82818337600083830152505050565b600061053261052d846104df565b6104c4565b90508281526020810184848401111561054e5761054d61044e565b5b610559848285610510565b509392505050565b600082601f83011261057657610575610449565b5b813561058684826020860161051f565b91505092915050565b600080604083850312156105a6576105a561043f565b5b600083013567ffffffffffffffff8111156105c4576105c3610444565b5b6105d085828601610561565b925050602083013567ffffffffffffffff8111156105f1576105f0610444565b5b6105fd85828601610561565b9150509250929050565b60006020828403121561061d5761061c61043f565b5b600082013567ffffffffffffffff81111561063b5761063a610444565b5b61064784828501610561565b91505092915050565b600081519050919050565b600082825260208201905092915050565b60005b8381101561068a57808201518184015260208101905061066f565b60008484015250505050565b60006106a182610650565b6106ab818561065b565b93506106bb81856020860161066c565b6106c481610453565b840191505092915050565b600060408201905081810360008301526106e98185610696565b905081810360208301526106fd8184610696565b90509392505050565b600081905092915050565b600061071c82610650565b6107268185610706565b935061073681856020860161066c565b80840191505092915050565b600061074e8284610711565b915081905092915050565b7f4e487b7100000000000000000000000000000000000000000000000000000000600052602260045260246000fd5b600060028204905060018216806107a057607f821691505b6020821081036107b3576107b2610759565b5b50919050565b60008190508160005260206000209050919050565b60006020601f8301049050919050565b600082821b905092915050565b60006008830261081b7fffffffffffffffffffffffffffffffffffffffffffffffffffffffffffffffff826107de565b61082586836107de565b95508019841693508086168417925050509392505050565b6000819050919050565b6000819050919050565b600061086c6108676108628461083d565b610847565b61083d565b9050919050565b6000819050919050565b61088683610851565b61089a61089282610873565b8484546107eb565b825550505050565b600090565b6108af6108a2565b6108ba81848461087d565b505050565b5b818110156108de576108d36000826108a7565b6001810190506108c0565b5050565b601f821115610923576108f4816107b9565b6108fd846107ce565b8101602085101561090c578190505b610920610918856107ce565b8301826108bf565b50505b505050565b600082821c905092915050565b600061094660001984600802610928565b1980831691505092915050565b600061095f8383610935565b9150826002028217905092915050565b61097882610650565b67ffffffffffffffff81111561099157610990610464565b5b61099b8254610788565b6109a68282856108e2565b600060209050601f8311600181146109d957600084156109c7578287015190505b6109d18582610953565b865550610a39565b601f1984166109e7866107b9565b60005b82811015610a0f578489015182556001820191506020850194506020810190506109ea565b86831015610a2c5784890151610a28601f891682610935565b8355505b6001600288020188555050505b50505050505056fea2646970667358221220bdda04dc55cbb7e597d60c180cf26de012ced3f4ccd53a03bdd2cd003b87668e64736f6c63430008130033",
  "immutableReferences": {},
  "source": "// SPDX-License-Identifier: MIT\r\npragma solidity ^0.8.19;\r\n\r\ncontract DIDRegistry {\r\n\r\n    struct DID {\r\n        string did;\r\n        string publicKey;\r\n    }\r\n\r\n    mapping(string => DID) public dids;\r\n\r\n    function registerDID(string memory _did, string memory _publicKey) public {\r\n        dids[_did] = DID(_did, _publicKey);\r\n    }\r\n\r\n    function resolveDID(string memory _did) public view returns (string memory, string memory) {\r\n        DID memory record = dids[_did];\r\n        return (record.did, record.publicKey);\r\n    }\r\n\r\n    function updateDID(string memory _did, string memory _newPublicKey) public {\r\n        dids[_did].publicKey = _newPublicKey;\r\n    }\r\n}",
  "sourcePath": "D:\\did-identity-system\\blockchain\\contracts\\DIDRegistry.sol",
  "compiler": {
    "name": "solc",
    "version": "0.8.19+commit.7dd6d404.Emscripten.clang"
  },
  "schemaVersion": "3.4.16",
  "updatedAt": "2026-03-08T04:32:50.021Z",
  "networkType": "ethereum",
  "devdoc": {
    "kind": "dev",
    "methods": {},
    "version": 1
  },
  "userdoc": {
    "kind": "user",
    "methods": {},
    "version": 1
  }
}